{
  "_format": "hh-sol-artifact-1",
  "contractName": "WeightedPoll",
  "sourceName": "contracts/WeightedPoll.sol",
  "abi": [
    {
      "inputs": [
        {
          "internalType": "address",
          "name": "_pfAddress",
          "type": "address"
        },
        {
          "internalType": "string",
          "name": "_question",
          "type": "string"
        },
        {
          "internalType": "string[]",
          "name": "_options",
          "type": "string[]"
        }
      ],
      "stateMutability": "nonpayable",
      "type": "constructor"
    },
    {
      "anonymous": false,
      "inputs": [
        {
          "indexed": true,
          "internalType": "address",
          "name": "previousOwner",
          "type": "address"
        },
        {
          "indexed": true,
          "internalType": "address",
          "name": "newOwner",
          "type": "address"
        }
      ],
      "name": "OwnershipTransferred",
      "type": "event"
    },
    {
      "inputs": [],
      "name": "closePoll",
      "outputs": [],
      "stateMutability": "nonpayable",
      "type": "function"
    },
    {
      "inputs": [],
      "name": "countVotes",
      "outputs": [
        {
          "internalType": "uint256[]",
          "name": "res",
          "type": "uint256[]"
        }
      ],
      "stateMutability": "view",
      "type": "function"
    },
    {
      "inputs": [],
      "name": "getPoll",
      "outputs": [
        {
          "internalType": "address",
          "name": "pollAddress",
          "type": "address"
        },
        {
          "internalType": "string",
          "name": "pollQuestion",
          "type": "string"
        },
        {
          "internalType": "bool",
          "name": "isPollOpen",
          "type": "bool"
        },
        {
          "internalType": "uint256",
          "name": "pollCreationDate",
          "type": "uint256"
        },
        {
          "internalType": "uint256",
          "name": "pollEndDate",
          "type": "uint256"
        },
        {
          "internalType": "string[]",
          "name": "pollOptions",
          "type": "string[]"
        },
        {
          "internalType": "uint256[]",
          "name": "pollVotes",
          "type": "uint256[]"
        }
      ],
      "stateMutability": "view",
      "type": "function"
    },
    {
      "inputs": [],
      "name": "openPoll",
      "outputs": [],
      "stateMutability": "nonpayable",
      "type": "function"
    },
    {
      "inputs": [],
      "name": "owner",
      "outputs": [
        {
          "internalType": "address",
          "name": "",
          "type": "address"
        }
      ],
      "stateMutability": "view",
      "type": "function"
    },
    {
      "inputs": [],
      "name": "renounceOwnership",
      "outputs": [],
      "stateMutability": "nonpayable",
      "type": "function"
    },
    {
      "inputs": [
        {
          "internalType": "address",
          "name": "newOwner",
          "type": "address"
        }
      ],
      "name": "transferOwnership",
      "outputs": [],
      "stateMutability": "nonpayable",
      "type": "function"
    },
    {
      "inputs": [
        {
          "internalType": "uint8",
          "name": "_optionIndex",
          "type": "uint8"
        }
      ],
      "name": "votePoll",
      "outputs": [],
      "stateMutability": "nonpayable",
      "type": "function"
    }
  ],
  "bytecode": "0x60806040523480156200001157600080fd5b50604051620024e8380380620024e88339818101604052810190620000379190620005d7565b6000620000496200033560201b60201c565b9050806000806101000a81548173ffffffffffffffffffffffffffffffffffffffff021916908373ffffffffffffffffffffffffffffffffffffffff1602179055508073ffffffffffffffffffffffffffffffffffffffff16600073ffffffffffffffffffffffffffffffffffffffff167f8be0079c531659141344cd1fd0a4f28419497f9722a3daafe3b4186f6b6457e060405160405180910390a35082600160006101000a81548173ffffffffffffffffffffffffffffffffffffffff021916908373ffffffffffffffffffffffffffffffffffffffff1602179055508160029080519060200190620001409291906200040c565b5060018060146101000a81548160ff02191690831515021790555042600481905550600060058190555060005b81518110156200023a5760036040518060400160405280848481518110620001be577f4e487b7100000000000000000000000000000000000000000000000000000000600052603260045260246000fd5b60200260200101518152602001600081525090806001815401808255809150506001900390600052602060002090600202016000909190919091506000820151816000019080519060200190620002179291906200040c565b50602082015181600101555050808062000231906200088c565b9150506200016d565b506200026b604051806060016040528060318152602001620024b760319139306200033d60201b62000e591760201c565b6200029b6040518060600160405280602781526020016200249060279139846200033d60201b62000e591760201c565b600160009054906101000a900473ffffffffffffffffffffffffffffffffffffffff1673ffffffffffffffffffffffffffffffffffffffff16631165614a306040518263ffffffff1660e01b8152600401620002f89190620006b1565b600060405180830381600087803b1580156200031357600080fd5b505af115801562000328573d6000803e3d6000fd5b5050505050505062000992565b600033905090565b620003df828260405160240162000356929190620006ce565b6040516020818303038152906040527f319af333000000000000000000000000000000000000000000000000000000007bffffffffffffffffffffffffffffffffffffffffffffffffffffffff19166020820180517bffffffffffffffffffffffffffffffffffffffffffffffffffffffff8381831617835250505050620003e360201b60201c565b5050565b60008151905060006a636f6e736f6c652e6c6f679050602083016000808483855afa5050505050565b8280546200041a9062000820565b90600052602060002090601f0160209004810192826200043e57600085556200048a565b82601f106200045957805160ff19168380011785556200048a565b828001600101855582156200048a579182015b82811115620004895782518255916020019190600101906200046c565b5b5090506200049991906200049d565b5090565b5b80821115620004b85760008160009055506001016200049e565b5090565b6000620004d3620004cd846200072b565b62000702565b9050808382526020820190508260005b85811015620005175781518501620004fc8882620005aa565b845260208401935060208301925050600181019050620004e3565b5050509392505050565b60006200053862000532846200075a565b62000702565b9050828152602081018484840111156200055157600080fd5b6200055e848285620007ea565b509392505050565b600081519050620005778162000978565b92915050565b600082601f8301126200058f57600080fd5b8151620005a1848260208601620004bc565b91505092915050565b600082601f830112620005bc57600080fd5b8151620005ce84826020860162000521565b91505092915050565b600080600060608486031215620005ed57600080fd5b6000620005fd8682870162000566565b935050602084015167ffffffffffffffff8111156200061b57600080fd5b6200062986828701620005aa565b925050604084015167ffffffffffffffff8111156200064757600080fd5b62000655868287016200057d565b9150509250925092565b6200066a81620007ac565b82525050565b60006200067d8262000790565b6200068981856200079b565b93506200069b818560208601620007ea565b620006a68162000967565b840191505092915050565b6000602082019050620006c860008301846200065f565b92915050565b60006040820190508181036000830152620006ea818562000670565b9050620006fb60208301846200065f565b9392505050565b60006200070e62000721565b90506200071c828262000856565b919050565b6000604051905090565b600067ffffffffffffffff82111562000749576200074862000938565b5b602082029050602081019050919050565b600067ffffffffffffffff82111562000778576200077762000938565b5b620007838262000967565b9050602081019050919050565b600081519050919050565b600082825260208201905092915050565b6000620007b982620007c0565b9050919050565b600073ffffffffffffffffffffffffffffffffffffffff82169050919050565b6000819050919050565b60005b838110156200080a578082015181840152602081019050620007ed565b838111156200081a576000848401525b50505050565b600060028204905060018216806200083957607f821691505b6020821081141562000850576200084f62000909565b5b50919050565b620008618262000967565b810181811067ffffffffffffffff8211171562000883576200088262000938565b5b80604052505050565b60006200089982620007e0565b91507fffffffffffffffffffffffffffffffffffffffffffffffffffffffffffffffff821415620008cf57620008ce620008da565b5b600182019050919050565b7f4e487b7100000000000000000000000000000000000000000000000000000000600052601160045260246000fd5b7f4e487b7100000000000000000000000000000000000000000000000000000000600052602260045260246000fd5b7f4e487b7100000000000000000000000000000000000000000000000000000000600052604160045260246000fd5b6000601f19601f8301169050919050565b6200098381620007ac565b81146200098f57600080fd5b50565b611aee80620009a26000396000f3fe608060405234801561001057600080fd5b50600436106100885760003560e01c80638da5cb5b1161005b5780638da5cb5b146100e1578063b647990a146100ff578063ed8c2aed1461011d578063f2fde38b1461012757610088565b806303b9284d1461008d57806303c32278146100a957806340176058146100cd578063715018a6146100d7575b600080fd5b6100a760048036038101906100a291906111c7565b610143565b005b6100b16104aa565b6040516100c497969594939291906114ad565b60405180910390f35b6100d5610838565b005b6100df610928565b005b6100e9610a62565b6040516100f69190611492565b60405180910390f35b610107610a8b565b6040516101149190611531565b60405180910390f35b610125610bc1565b005b610141600480360381019061013c9190611175565b610cb0565b005b600160149054906101000a900460ff16610192576040517f08c379a000000000000000000000000000000000000000000000000000000000815260040161018990611611565b60405180910390fd5b61019b33610ef5565b156101db576040517f08c379a00000000000000000000000000000000000000000000000000000000081526004016101d290611691565b60405180910390fd5b600160009054906101000a900473ffffffffffffffffffffffffffffffffffffffff1673ffffffffffffffffffffffffffffffffffffffff1663ef907164336040518263ffffffff1660e01b81526004016102369190611492565b60206040518083038186803b15801561024e57600080fd5b505afa158015610262573d6000803e3d6000fd5b505050506040513d601f19601f82011682018060405250810190610286919061119e565b6102c5576040517f08c379a00000000000000000000000000000000000000000000000000000000081526004016102bc90611671565b60405180910390fd5b6003805490508160ff161061030f576040517f08c379a0000000000000000000000000000000000000000000000000000000008152600401610306906116b1565b60405180910390fd5b6103526040518060400160405280600981526020017f766f7465506f6c6c3a0000000000000000000000000000000000000000000000815250338360ff16610fca565b6103996040518060400160405280601081526020017f686173566f746564206265666f72653a0000000000000000000000000000000081525061039433610ef5565b611069565b6006339080600181540180825580915050600190039060005260206000200160009091909190916101000a81548173ffffffffffffffffffffffffffffffffffffffff021916908373ffffffffffffffffffffffffffffffffffffffff16021790555060038160ff1681548110610439577f4e487b7100000000000000000000000000000000000000000000000000000000600052603260045260246000fd5b9060005260206000209060020201600101600081548092919061045b9061182a565b91905055506104a76040518060400160405280600f81526020017f686173566f7465642061667465723a00000000000000000000000000000000008152506104a233610ef5565b611069565b50565b600060606000806000606080600060038054905067ffffffffffffffff8111156104fd577f4e487b7100000000000000000000000000000000000000000000000000000000600052604160045260246000fd5b60405190808252806020026020018201604052801561053057816020015b606081526020019060019003908161051b5790505b509050600060038054905067ffffffffffffffff81111561057a577f4e487b7100000000000000000000000000000000000000000000000000000000600052604160045260246000fd5b6040519080825280602002602001820160405280156105a85781602001602082028036833780820191505090505b50905060005b60038054905081101561077757600381815481106105f5577f4e487b7100000000000000000000000000000000000000000000000000000000600052603260045260246000fd5b90600052602060002090600202016000018054610611906117f8565b80601f016020809104026020016040519081016040528092919081815260200182805461063d906117f8565b801561068a5780601f1061065f5761010080835404028352916020019161068a565b820191906000526020600020905b81548152906001019060200180831161066d57829003601f168201915b50505050508382815181106106c8577f4e487b7100000000000000000000000000000000000000000000000000000000600052603260045260246000fd5b60200260200101819052506003818154811061070d577f4e487b7100000000000000000000000000000000000000000000000000000000600052603260045260246000fd5b906000526020600020906002020160010154828281518110610758577f4e487b7100000000000000000000000000000000000000000000000000000000600052603260045260246000fd5b602002602001018181525050808061076f9061182a565b9150506105ae565b50306002600160149054906101000a900460ff16600454600554868685805461079f906117f8565b80601f01602080910402602001604051908101604052809291908181526020018280546107cb906117f8565b80156108185780601f106107ed57610100808354040283529160200191610818565b820191906000526020600020905b8154815290600101906020018083116107fb57829003601f168201915b505050505095509850985098509850985098509850505090919293949596565b610840611105565b73ffffffffffffffffffffffffffffffffffffffff1661085e610a62565b73ffffffffffffffffffffffffffffffffffffffff16146108b4576040517f08c379a00000000000000000000000000000000000000000000000000000000081526004016108ab90611651565b60405180910390fd5b600160149054906101000a900460ff1615610904576040517f08c379a00000000000000000000000000000000000000000000000000000000081526004016108fb90611631565b60405180910390fd5b60018060146101000a81548160ff0219169083151502179055506000600581905550565b610930611105565b73ffffffffffffffffffffffffffffffffffffffff1661094e610a62565b73ffffffffffffffffffffffffffffffffffffffff16146109a4576040517f08c379a000000000000000000000000000000000000000000000000000000000815260040161099b90611651565b60405180910390fd5b600073ffffffffffffffffffffffffffffffffffffffff1660008054906101000a900473ffffffffffffffffffffffffffffffffffffffff1673ffffffffffffffffffffffffffffffffffffffff167f8be0079c531659141344cd1fd0a4f28419497f9722a3daafe3b4186f6b6457e060405160405180910390a360008060006101000a81548173ffffffffffffffffffffffffffffffffffffffff021916908373ffffffffffffffffffffffffffffffffffffffff160217905550565b60008060009054906101000a900473ffffffffffffffffffffffffffffffffffffffff16905090565b6060600060038054905067ffffffffffffffff811115610ad4577f4e487b7100000000000000000000000000000000000000000000000000000000600052604160045260246000fd5b604051908082528060200260200182016040528015610b025781602001602082028036833780820191505090505b50905060005b600380549050811015610bb95760038181548110610b4f577f4e487b7100000000000000000000000000000000000000000000000000000000600052603260045260246000fd5b906000526020600020906002020160010154828281518110610b9a577f4e487b7100000000000000000000000000000000000000000000000000000000600052603260045260246000fd5b6020026020010181815250508080610bb19061182a565b915050610b08565b508091505090565b610bc9611105565b73ffffffffffffffffffffffffffffffffffffffff16610be7610a62565b73ffffffffffffffffffffffffffffffffffffffff1614610c3d576040517f08c379a0000000000000000000000000000000000000000000000000000000008152600401610c3490611651565b60405180910390fd5b600160149054906101000a900460ff16610c8c576040517f08c379a0000000000000000000000000000000000000000000000000000000008152600401610c8390611611565b60405180910390fd5b6000600160146101000a81548160ff02191690831515021790555042600581905550565b610cb8611105565b73ffffffffffffffffffffffffffffffffffffffff16610cd6610a62565b73ffffffffffffffffffffffffffffffffffffffff1614610d2c576040517f08c379a0000000000000000000000000000000000000000000000000000000008152600401610d2390611651565b60405180910390fd5b600073ffffffffffffffffffffffffffffffffffffffff168173ffffffffffffffffffffffffffffffffffffffff161415610d9c576040517f08c379a0000000000000000000000000000000000000000000000000000000008152600401610d93906115f1565b60405180910390fd5b8073ffffffffffffffffffffffffffffffffffffffff1660008054906101000a900473ffffffffffffffffffffffffffffffffffffffff1673ffffffffffffffffffffffffffffffffffffffff167f8be0079c531659141344cd1fd0a4f28419497f9722a3daafe3b4186f6b6457e060405160405180910390a3806000806101000a81548173ffffffffffffffffffffffffffffffffffffffff021916908373ffffffffffffffffffffffffffffffffffffffff16021790555050565b610ef18282604051602401610e6f929190611553565b6040516020818303038152906040527f319af333000000000000000000000000000000000000000000000000000000007bffffffffffffffffffffffffffffffffffffffffffffffffffffffff19166020820180517bffffffffffffffffffffffffffffffffffffffffffffffffffffffff838183161783525050505061110d565b5050565b600080600090505b600680549050811015610fbf578273ffffffffffffffffffffffffffffffffffffffff1660068281548110610f5b577f4e487b7100000000000000000000000000000000000000000000000000000000600052603260045260246000fd5b9060005260206000200160009054906101000a900473ffffffffffffffffffffffffffffffffffffffff1673ffffffffffffffffffffffffffffffffffffffff161415610fac576001915050610fc5565b8080610fb79061182a565b915050610efd565b50600090505b919050565b611064838383604051602401610fe293929190611583565b6040516020818303038152906040527f07c81217000000000000000000000000000000000000000000000000000000007bffffffffffffffffffffffffffffffffffffffffffffffffffffffff19166020820180517bffffffffffffffffffffffffffffffffffffffffffffffffffffffff838183161783525050505061110d565b505050565b611101828260405160240161107f9291906115c1565b6040516020818303038152906040527fc3b55635000000000000000000000000000000000000000000000000000000007bffffffffffffffffffffffffffffffffffffffffffffffffffffffff19166020820180517bffffffffffffffffffffffffffffffffffffffffffffffffffffffff838183161783525050505061110d565b5050565b600033905090565b60008151905060006a636f6e736f6c652e6c6f679050602083016000808483855afa5050505050565b60008135905061114581611a73565b92915050565b60008151905061115a81611a8a565b92915050565b60008135905061116f81611aa1565b92915050565b60006020828403121561118757600080fd5b600061119584828501611136565b91505092915050565b6000602082840312156111b057600080fd5b60006111be8482850161114b565b91505092915050565b6000602082840312156111d957600080fd5b60006111e784828501611160565b91505092915050565b60006111fc838361130d565b905092915050565b60006112108383611474565b60208301905092915050565b61122581611770565b82525050565b6000611236826116f1565b611240818561172c565b935083602082028501611252856116d1565b8060005b8581101561128e578484038952815161126f85826111f0565b945061127a83611712565b925060208a01995050600181019050611256565b50829750879550505050505092915050565b60006112ab826116fc565b6112b5818561173d565b93506112c0836116e1565b8060005b838110156112f15781516112d88882611204565b97506112e38361171f565b9250506001810190506112c4565b5085935050505092915050565b61130781611782565b82525050565b600061131882611707565b611322818561174e565b93506113328185602086016117c5565b61133b816118d1565b840191505092915050565b600061135182611707565b61135b818561175f565b935061136b8185602086016117c5565b611374816118d1565b840191505092915050565b600061138c60268361175f565b9150611397826118e2565b604082019050919050565b60006113af600e8361175f565b91506113ba82611931565b602082019050919050565b60006113d2600c8361175f565b91506113dd8261195a565b602082019050919050565b60006113f560208361175f565b915061140082611983565b602082019050919050565b6000611418602b8361175f565b9150611423826119ac565b604082019050919050565b600061143b60228361175f565b9150611446826119fb565b604082019050919050565b600061145e60178361175f565b915061146982611a4a565b602082019050919050565b61147d816117ae565b82525050565b61148c816117ae565b82525050565b60006020820190506114a7600083018461121c565b92915050565b600060e0820190506114c2600083018a61121c565b81810360208301526114d48189611346565b90506114e360408301886112fe565b6114f06060830187611483565b6114fd6080830186611483565b81810360a083015261150f818561122b565b905081810360c083015261152381846112a0565b905098975050505050505050565b6000602082019050818103600083015261154b81846112a0565b905092915050565b6000604082019050818103600083015261156d8185611346565b905061157c602083018461121c565b9392505050565b6000606082019050818103600083015261159d8186611346565b90506115ac602083018561121c565b6115b96040830184611483565b949350505050565b600060408201905081810360008301526115db8185611346565b90506115ea60208301846112fe565b9392505050565b6000602082019050818103600083015261160a8161137f565b9050919050565b6000602082019050818103600083015261162a816113a2565b9050919050565b6000602082019050818103600083015261164a816113c5565b9050919050565b6000602082019050818103600083015261166a816113e8565b9050919050565b6000602082019050818103600083015261168a8161140b565b9050919050565b600060208201905081810360008301526116aa8161142e565b9050919050565b600060208201905081810360008301526116ca81611451565b9050919050565b6000819050602082019050919050565b6000819050602082019050919050565b600081519050919050565b600081519050919050565b600081519050919050565b6000602082019050919050565b6000602082019050919050565b600082825260208201905092915050565b600082825260208201905092915050565b600082825260208201905092915050565b600082825260208201905092915050565b600061177b8261178e565b9050919050565b60008115159050919050565b600073ffffffffffffffffffffffffffffffffffffffff82169050919050565b6000819050919050565b600060ff82169050919050565b60005b838110156117e35780820151818401526020810190506117c8565b838111156117f2576000848401525b50505050565b6000600282049050600182168061181057607f821691505b60208210811415611824576118236118a2565b5b50919050565b6000611835826117ae565b91507fffffffffffffffffffffffffffffffffffffffffffffffffffffffffffffffff82141561186857611867611873565b5b600182019050919050565b7f4e487b7100000000000000000000000000000000000000000000000000000000600052601160045260246000fd5b7f4e487b7100000000000000000000000000000000000000000000000000000000600052602260045260246000fd5b6000601f19601f8301169050919050565b7f4f776e61626c653a206e6577206f776e657220697320746865207a65726f206160008201527f6464726573730000000000000000000000000000000000000000000000000000602082015250565b7f506f6c6c20697320636c6f736564000000000000000000000000000000000000600082015250565b7f506f6c6c206973206f70656e0000000000000000000000000000000000000000600082015250565b7f4f776e61626c653a2063616c6c6572206973206e6f7420746865206f776e6572600082015250565b7f53656e646572206973206e6f742061207265676973746572656420726567697360008201527f746572656420766f746572000000000000000000000000000000000000000000602082015250565b7f596f7527766520616c726561647920766f74656420666f72207468697320706f60008201527f6c6c000000000000000000000000000000000000000000000000000000000000602082015250565b7f4f7074696f6e20696e64657820697320696e76616c6964000000000000000000600082015250565b611a7c81611770565b8114611a8757600080fd5b50565b611a9381611782565b8114611a9e57600080fd5b50565b611aaa816117b8565b8114611ab557600080fd5b5056fea26469706673582212207119252db8f6a32b7f75048def019d3137388d270381664f72443a0b619c3f0f64736f6c634300080300335765696768746564506f6c6c3a205573696e6720506f6c6c466163746f727920616464726573735765696768746564506f6c6c3a204465706c6f796564206f6e20626c6f636b636861696e20776974682061646472657373",
  "linkReferences": {},
  "deployedLinkReferences": {}
}