{
  "_format": "hh-sol-artifact-1",
  "contractName": "WeightedPoll",
  "sourceName": "contracts/WeightedPoll.sol",
  "abi": [
    {
      "inputs": [
        {
          "internalType": "address",
          "name": "_pfAddress",
          "type": "address"
        },
        {
          "internalType": "bool",
          "name": "_weightVotes",
          "type": "bool"
        },
        {
          "internalType": "string",
          "name": "_question",
          "type": "string"
        },
        {
          "internalType": "string[]",
          "name": "_options",
          "type": "string[]"
        }
      ],
      "stateMutability": "nonpayable",
      "type": "constructor"
    },
    {
      "anonymous": false,
      "inputs": [
        {
          "indexed": true,
          "internalType": "address",
          "name": "previousOwner",
          "type": "address"
        },
        {
          "indexed": true,
          "internalType": "address",
          "name": "newOwner",
          "type": "address"
        }
      ],
      "name": "OwnershipTransferred",
      "type": "event"
    },
    {
      "inputs": [],
      "name": "closePoll",
      "outputs": [],
      "stateMutability": "nonpayable",
      "type": "function"
    },
    {
      "inputs": [],
      "name": "countVotes",
      "outputs": [
        {
          "internalType": "uint256[]",
          "name": "res",
          "type": "uint256[]"
        }
      ],
      "stateMutability": "view",
      "type": "function"
    },
    {
      "inputs": [],
      "name": "countWeights",
      "outputs": [
        {
          "internalType": "uint256[]",
          "name": "res",
          "type": "uint256[]"
        }
      ],
      "stateMutability": "view",
      "type": "function"
    },
    {
      "inputs": [],
      "name": "getPoll",
      "outputs": [
        {
          "internalType": "address",
          "name": "pollAddress",
          "type": "address"
        },
        {
          "internalType": "string",
          "name": "pollQuestion",
          "type": "string"
        },
        {
          "internalType": "bool",
          "name": "isWeighted",
          "type": "bool"
        },
        {
          "internalType": "bool",
          "name": "isPollOpen",
          "type": "bool"
        },
        {
          "internalType": "uint256",
          "name": "pollCreationDate",
          "type": "uint256"
        },
        {
          "internalType": "uint256",
          "name": "pollEndDate",
          "type": "uint256"
        },
        {
          "internalType": "string[]",
          "name": "pollOptions",
          "type": "string[]"
        },
        {
          "internalType": "uint256[]",
          "name": "pollVotes",
          "type": "uint256[]"
        },
        {
          "internalType": "uint256[]",
          "name": "pollWeights",
          "type": "uint256[]"
        }
      ],
      "stateMutability": "view",
      "type": "function"
    },
    {
      "inputs": [],
      "name": "openPoll",
      "outputs": [],
      "stateMutability": "nonpayable",
      "type": "function"
    },
    {
      "inputs": [],
      "name": "owner",
      "outputs": [
        {
          "internalType": "address",
          "name": "",
          "type": "address"
        }
      ],
      "stateMutability": "view",
      "type": "function"
    },
    {
      "inputs": [],
      "name": "renounceOwnership",
      "outputs": [],
      "stateMutability": "nonpayable",
      "type": "function"
    },
    {
      "inputs": [
        {
          "internalType": "address",
          "name": "newOwner",
          "type": "address"
        }
      ],
      "name": "transferOwnership",
      "outputs": [],
      "stateMutability": "nonpayable",
      "type": "function"
    },
    {
      "inputs": [
        {
          "internalType": "uint8",
          "name": "_optionIndex",
          "type": "uint8"
        },
        {
          "internalType": "address",
          "name": "_address",
          "type": "address"
        }
      ],
      "name": "votePoll",
      "outputs": [],
      "stateMutability": "nonpayable",
      "type": "function"
    }
  ],
  "bytecode": "0x60806040523480156200001157600080fd5b50604051620028a5380380620028a58339818101604052810190620000379190620006dc565b6000620000496200037a60201b60201c565b9050806000806101000a81548173ffffffffffffffffffffffffffffffffffffffff021916908373ffffffffffffffffffffffffffffffffffffffff1602179055508073ffffffffffffffffffffffffffffffffffffffff16600073ffffffffffffffffffffffffffffffffffffffff167f8be0079c531659141344cd1fd0a4f28419497f9722a3daafe3b4186f6b6457e060405160405180910390a35083600160006101000a81548173ffffffffffffffffffffffffffffffffffffffff021916908373ffffffffffffffffffffffffffffffffffffffff16021790555060018060146101000a81548160ff02191690831515021790555082600160156101000a81548160ff02191690831515021790555060c8600160166101000a81548160ff021916908360ff160217905550816002908051906020019062000190929190620004fa565b5042600481905550600060058190555060005b81518110156200030f576200023b6040518060400160405280600a81526020017f4f7074696f6e73206174000000000000000000000000000000000000000000008152508284848151811062000222577f4e487b7100000000000000000000000000000000000000000000000000000000600052603260045260246000fd5b60200260200101516200038260201b620010771760201c565b6003604051806060016040528084848151811062000282577f4e487b7100000000000000000000000000000000000000000000000000000000600052603260045260246000fd5b6020026020010151815260200160008152602001600081525090806001815401808255809150506001900390600052602060002090600302016000909190919091506000820151816000019080519060200190620002e2929190620004fa565b506020820151816001015560408201518160020155505080806200030690620009f2565b915050620001a3565b50620003406040518060600160405280603181526020016200287460319139306200042b60201b620011161760201c565b620003706040518060600160405280602781526020016200284d60279139856200042b60201b620011161760201c565b5050505062000b12565b600033905090565b620004268383836040516024016200039d9392919062000811565b6040516020818303038152906040527fa3f5c739000000000000000000000000000000000000000000000000000000007bffffffffffffffffffffffffffffffffffffffffffffffffffffffff19166020820180517bffffffffffffffffffffffffffffffffffffffffffffffffffffffff8381831617835250505050620004d160201b60201c565b505050565b620004cd828260405160240162000444929190620007dd565b6040516020818303038152906040527f319af333000000000000000000000000000000000000000000000000000000007bffffffffffffffffffffffffffffffffffffffffffffffffffffffff19166020820180517bffffffffffffffffffffffffffffffffffffffffffffffffffffffff8381831617835250505050620004d160201b60201c565b5050565b60008151905060006a636f6e736f6c652e6c6f679050602083016000808483855afa5050505050565b828054620005089062000986565b90600052602060002090601f0160209004810192826200052c576000855562000578565b82601f106200054757805160ff191683800117855562000578565b8280016001018555821562000578579182015b82811115620005775782518255916020019190600101906200055a565b5b5090506200058791906200058b565b5090565b5b80821115620005a65760008160009055506001016200058c565b5090565b6000620005c1620005bb8462000885565b6200085c565b9050808382526020820190508260005b85811015620006055781518501620005ea8882620006af565b845260208401935060208301925050600181019050620005d1565b5050509392505050565b6000620006266200062084620008b4565b6200085c565b9050828152602081018484840111156200063f57600080fd5b6200064c84828562000950565b509392505050565b600081519050620006658162000ade565b92915050565b600082601f8301126200067d57600080fd5b81516200068f848260208601620005aa565b91505092915050565b600081519050620006a98162000af8565b92915050565b600082601f830112620006c157600080fd5b8151620006d38482602086016200060f565b91505092915050565b60008060008060808587031215620006f357600080fd5b6000620007038782880162000654565b9450506020620007168782880162000698565b935050604085015167ffffffffffffffff8111156200073457600080fd5b6200074287828801620006af565b925050606085015167ffffffffffffffff8111156200076057600080fd5b6200076e878288016200066b565b91505092959194509250565b620007858162000906565b82525050565b60006200079882620008ea565b620007a48185620008f5565b9350620007b681856020860162000950565b620007c18162000acd565b840191505092915050565b620007d78162000946565b82525050565b60006040820190508181036000830152620007f981856200078b565b90506200080a60208301846200077a565b9392505050565b600060608201905081810360008301526200082d81866200078b565b90506200083e6020830185620007cc565b81810360408301526200085281846200078b565b9050949350505050565b6000620008686200087b565b9050620008768282620009bc565b919050565b6000604051905090565b600067ffffffffffffffff821115620008a357620008a262000a9e565b5b602082029050602081019050919050565b600067ffffffffffffffff821115620008d257620008d162000a9e565b5b620008dd8262000acd565b9050602081019050919050565b600081519050919050565b600082825260208201905092915050565b6000620009138262000926565b9050919050565b60008115159050919050565b600073ffffffffffffffffffffffffffffffffffffffff82169050919050565b6000819050919050565b60005b838110156200097057808201518184015260208101905062000953565b8381111562000980576000848401525b50505050565b600060028204905060018216806200099f57607f821691505b60208210811415620009b657620009b562000a6f565b5b50919050565b620009c78262000acd565b810181811067ffffffffffffffff82111715620009e957620009e862000a9e565b5b80604052505050565b6000620009ff8262000946565b91507fffffffffffffffffffffffffffffffffffffffffffffffffffffffffffffffff82141562000a355762000a3462000a40565b5b600182019050919050565b7f4e487b7100000000000000000000000000000000000000000000000000000000600052601160045260246000fd5b7f4e487b7100000000000000000000000000000000000000000000000000000000600052602260045260246000fd5b7f4e487b7100000000000000000000000000000000000000000000000000000000600052604160045260246000fd5b6000601f19601f8301169050919050565b62000ae98162000906565b811462000af557600080fd5b50565b62000b03816200091a565b811462000b0f57600080fd5b50565b611d2b8062000b226000396000f3fe608060405234801561001057600080fd5b50600436106100935760003560e01c8063b647990a11610066578063b647990a146100f0578063de2b72641461010e578063e35449c61461012c578063ed8c2aed14610148578063f2fde38b1461015257610093565b806303c322781461009857806340176058146100be578063715018a6146100c85780638da5cb5b146100d2575b600080fd5b6100a061016e565b6040516100b5999897969594939291906116c9565b60405180910390f35b6100c6610611565b005b6100d0610701565b005b6100da61083b565b6040516100e791906116ae565b60405180910390f35b6100f8610864565b6040516101059190611772565b60405180910390f35b61011661099a565b6040516101239190611772565b60405180910390f35b610146600480360381019061014191906113f3565b610ad0565b005b610150610ddf565b005b61016c600480360381019061016791906113a1565b610ece565b005b600060606000806000806060806060600060038054905067ffffffffffffffff8111156101c4577f4e487b7100000000000000000000000000000000000000000000000000000000600052604160045260246000fd5b6040519080825280602002602001820160405280156101f757816020015b60608152602001906001900390816101e25790505b509050600060038054905067ffffffffffffffff811115610241577f4e487b7100000000000000000000000000000000000000000000000000000000600052604160045260246000fd5b60405190808252806020026020018201604052801561026f5781602001602082028036833780820191505090505b509050600060038054905067ffffffffffffffff8111156102b9577f4e487b7100000000000000000000000000000000000000000000000000000000600052604160045260246000fd5b6040519080825280602002602001820160405280156102e75781602001602082028036833780820191505090505b50905060005b6003805490508110156105475760038181548110610334577f4e487b7100000000000000000000000000000000000000000000000000000000600052603260045260246000fd5b9060005260206000209060030201600001805461035090611a84565b80601f016020809104026020016040519081016040528092919081815260200182805461037c90611a84565b80156103c95780601f1061039e576101008083540402835291602001916103c9565b820191906000526020600020905b8154815290600101906020018083116103ac57829003601f168201915b5050505050848281518110610407577f4e487b7100000000000000000000000000000000000000000000000000000000600052603260045260246000fd5b60200260200101819052506003818154811061044c577f4e487b7100000000000000000000000000000000000000000000000000000000600052603260045260246000fd5b906000526020600020906003020160010154838281518110610497577f4e487b7100000000000000000000000000000000000000000000000000000000600052603260045260246000fd5b602002602001018181525050600381815481106104dd577f4e487b7100000000000000000000000000000000000000000000000000000000600052603260045260246000fd5b906000526020600020906003020160020154828281518110610528577f4e487b7100000000000000000000000000000000000000000000000000000000600052603260045260246000fd5b602002602001018181525050808061053f90611ab6565b9150506102ed565b503060028b600160149054906101000a900460ff1660045460055488888887805461057190611a84565b80601f016020809104026020016040519081016040528092919081815260200182805461059d90611a84565b80156105ea5780601f106105bf576101008083540402835291602001916105ea565b820191906000526020600020905b8154815290600101906020018083116105cd57829003601f168201915b505050505097509b509b509b509b509b509b509b509b509b50505050909192939495969798565b6106196111b2565b73ffffffffffffffffffffffffffffffffffffffff1661063761083b565b73ffffffffffffffffffffffffffffffffffffffff161461068d576040517f08c379a0000000000000000000000000000000000000000000000000000000008152600401610684906118a7565b60405180910390fd5b600160149054906101000a900460ff16156106dd576040517f08c379a00000000000000000000000000000000000000000000000000000000081526004016106d490611887565b60405180910390fd5b60018060146101000a81548160ff0219169083151502179055506000600581905550565b6107096111b2565b73ffffffffffffffffffffffffffffffffffffffff1661072761083b565b73ffffffffffffffffffffffffffffffffffffffff161461077d576040517f08c379a0000000000000000000000000000000000000000000000000000000008152600401610774906118a7565b60405180910390fd5b600073ffffffffffffffffffffffffffffffffffffffff1660008054906101000a900473ffffffffffffffffffffffffffffffffffffffff1673ffffffffffffffffffffffffffffffffffffffff167f8be0079c531659141344cd1fd0a4f28419497f9722a3daafe3b4186f6b6457e060405160405180910390a360008060006101000a81548173ffffffffffffffffffffffffffffffffffffffff021916908373ffffffffffffffffffffffffffffffffffffffff160217905550565b60008060009054906101000a900473ffffffffffffffffffffffffffffffffffffffff16905090565b6060600060038054905067ffffffffffffffff8111156108ad577f4e487b7100000000000000000000000000000000000000000000000000000000600052604160045260246000fd5b6040519080825280602002602001820160405280156108db5781602001602082028036833780820191505090505b50905060005b6003805490508110156109925760038181548110610928577f4e487b7100000000000000000000000000000000000000000000000000000000600052603260045260246000fd5b906000526020600020906003020160010154828281518110610973577f4e487b7100000000000000000000000000000000000000000000000000000000600052603260045260246000fd5b602002602001018181525050808061098a90611ab6565b9150506108e1565b508091505090565b6060600060038054905067ffffffffffffffff8111156109e3577f4e487b7100000000000000000000000000000000000000000000000000000000600052604160045260246000fd5b604051908082528060200260200182016040528015610a115781602001602082028036833780820191505090505b50905060005b600380549050811015610ac85760038181548110610a5e577f4e487b7100000000000000000000000000000000000000000000000000000000600052603260045260246000fd5b906000526020600020906003020160020154828281518110610aa9577f4e487b7100000000000000000000000000000000000000000000000000000000600052603260045260246000fd5b6020026020010181815250508080610ac090611ab6565b915050610a17565b508091505090565b600160149054906101000a900460ff16610b1f576040517f08c379a0000000000000000000000000000000000000000000000000000000008152600401610b1690611867565b60405180910390fd5b80610b29816111ba565b15610b69576040517f08c379a0000000000000000000000000000000000000000000000000000000008152600401610b60906118c7565b60405180910390fd5b610bac6040518060400160405280600981526020017f766f7465506f6c6c3a0000000000000000000000000000000000000000000000815250338560ff1661128f565b6003805490508360ff1610610bf6576040517f08c379a0000000000000000000000000000000000000000000000000000000008152600401610bed906118e7565b60405180910390fd5b6000600160009054906101000a900473ffffffffffffffffffffffffffffffffffffffff1673ffffffffffffffffffffffffffffffffffffffff1663f6b56a5a846040518263ffffffff1660e01b8152600401610c5391906116ae565b60206040518083038186803b158015610c6b57600080fd5b505afa158015610c7f573d6000803e3d6000fd5b505050506040513d601f19601f82011682018060405250810190610ca391906113ca565b90506006839080600181540180825580915050600190039060005260206000200160009091909190916101000a81548173ffffffffffffffffffffffffffffffffffffffff021916908373ffffffffffffffffffffffffffffffffffffffff16021790555060038460ff1681548110610d45577f4e487b7100000000000000000000000000000000000000000000000000000000600052603260045260246000fd5b90600052602060002090600302016001016000815480929190610d6790611ab6565b9190505550610d758161132e565b60038560ff1681548110610db2577f4e487b7100000000000000000000000000000000000000000000000000000000600052603260045260246000fd5b90600052602060002090600302016002016000828254610dd291906119a6565b9250508190555050505050565b610de76111b2565b73ffffffffffffffffffffffffffffffffffffffff16610e0561083b565b73ffffffffffffffffffffffffffffffffffffffff1614610e5b576040517f08c379a0000000000000000000000000000000000000000000000000000000008152600401610e52906118a7565b60405180910390fd5b600160149054906101000a900460ff16610eaa576040517f08c379a0000000000000000000000000000000000000000000000000000000008152600401610ea190611867565b60405180910390fd5b6000600160146101000a81548160ff02191690831515021790555042600581905550565b610ed66111b2565b73ffffffffffffffffffffffffffffffffffffffff16610ef461083b565b73ffffffffffffffffffffffffffffffffffffffff1614610f4a576040517f08c379a0000000000000000000000000000000000000000000000000000000008152600401610f41906118a7565b60405180910390fd5b600073ffffffffffffffffffffffffffffffffffffffff168173ffffffffffffffffffffffffffffffffffffffff161415610fba576040517f08c379a0000000000000000000000000000000000000000000000000000000008152600401610fb190611847565b60405180910390fd5b8073ffffffffffffffffffffffffffffffffffffffff1660008054906101000a900473ffffffffffffffffffffffffffffffffffffffff1673ffffffffffffffffffffffffffffffffffffffff167f8be0079c531659141344cd1fd0a4f28419497f9722a3daafe3b4186f6b6457e060405160405180910390a3806000806101000a81548173ffffffffffffffffffffffffffffffffffffffff021916908373ffffffffffffffffffffffffffffffffffffffff16021790555050565b61111183838360405160240161108f93929190611802565b6040516020818303038152906040527fa3f5c739000000000000000000000000000000000000000000000000000000007bffffffffffffffffffffffffffffffffffffffffffffffffffffffff19166020820180517bffffffffffffffffffffffffffffffffffffffffffffffffffffffff8381831617835250505050611339565b505050565b6111ae828260405160240161112c929190611794565b6040516020818303038152906040527f319af333000000000000000000000000000000000000000000000000000000007bffffffffffffffffffffffffffffffffffffffffffffffffffffffff19166020820180517bffffffffffffffffffffffffffffffffffffffffffffffffffffffff8381831617835250505050611339565b5050565b600033905090565b600080600090505b600680549050811015611284578273ffffffffffffffffffffffffffffffffffffffff1660068281548110611220577f4e487b7100000000000000000000000000000000000000000000000000000000600052603260045260246000fd5b9060005260206000200160009054906101000a900473ffffffffffffffffffffffffffffffffffffffff1673ffffffffffffffffffffffffffffffffffffffff16141561127157600191505061128a565b808061127c90611ab6565b9150506111c2565b50600090505b919050565b6113298383836040516024016112a7939291906117c4565b6040516020818303038152906040527f07c81217000000000000000000000000000000000000000000000000000000007bffffffffffffffffffffffffffffffffffffffffffffffffffffffff19166020820180517bffffffffffffffffffffffffffffffffffffffffffffffffffffffff8381831617835250505050611339565b505050565b600060649050919050565b60008151905060006a636f6e736f6c652e6c6f679050602083016000808483855afa5050505050565b60008135905061137181611cb0565b92915050565b60008151905061138681611cc7565b92915050565b60008135905061139b81611cde565b92915050565b6000602082840312156113b357600080fd5b60006113c184828501611362565b91505092915050565b6000602082840312156113dc57600080fd5b60006113ea84828501611377565b91505092915050565b6000806040838503121561140657600080fd5b60006114148582860161138c565b925050602061142585828601611362565b9150509250929050565b600061143b838361154c565b905092915050565b600061144f8383611690565b60208301905092915050565b611464816119fc565b82525050565b600061147582611927565b61147f8185611962565b93508360208202850161149185611907565b8060005b858110156114cd57848403895281516114ae858261142f565b94506114b983611948565b925060208a01995050600181019050611495565b50829750879550505050505092915050565b60006114ea82611932565b6114f48185611973565b93506114ff83611917565b8060005b838110156115305781516115178882611443565b975061152283611955565b925050600181019050611503565b5085935050505092915050565b61154681611a0e565b82525050565b60006115578261193d565b6115618185611984565b9350611571818560208601611a51565b61157a81611b5d565b840191505092915050565b60006115908261193d565b61159a8185611995565b93506115aa818560208601611a51565b6115b381611b5d565b840191505092915050565b60006115cb602683611995565b91506115d682611b6e565b604082019050919050565b60006115ee600e83611995565b91506115f982611bbd565b602082019050919050565b6000611611600c83611995565b915061161c82611be6565b602082019050919050565b6000611634602083611995565b915061163f82611c0f565b602082019050919050565b6000611657602283611995565b915061166282611c38565b604082019050919050565b600061167a601783611995565b915061168582611c87565b602082019050919050565b61169981611a3a565b82525050565b6116a881611a3a565b82525050565b60006020820190506116c3600083018461145b565b92915050565b6000610120820190506116df600083018c61145b565b81810360208301526116f1818b611585565b9050611700604083018a61153d565b61170d606083018961153d565b61171a608083018861169f565b61172760a083018761169f565b81810360c0830152611739818661146a565b905081810360e083015261174d81856114df565b905081810361010083015261176281846114df565b90509a9950505050505050505050565b6000602082019050818103600083015261178c81846114df565b905092915050565b600060408201905081810360008301526117ae8185611585565b90506117bd602083018461145b565b9392505050565b600060608201905081810360008301526117de8186611585565b90506117ed602083018561145b565b6117fa604083018461169f565b949350505050565b6000606082019050818103600083015261181c8186611585565b905061182b602083018561169f565b818103604083015261183d8184611585565b9050949350505050565b60006020820190508181036000830152611860816115be565b9050919050565b60006020820190508181036000830152611880816115e1565b9050919050565b600060208201905081810360008301526118a081611604565b9050919050565b600060208201905081810360008301526118c081611627565b9050919050565b600060208201905081810360008301526118e08161164a565b9050919050565b600060208201905081810360008301526119008161166d565b9050919050565b6000819050602082019050919050565b6000819050602082019050919050565b600081519050919050565b600081519050919050565b600081519050919050565b6000602082019050919050565b6000602082019050919050565b600082825260208201905092915050565b600082825260208201905092915050565b600082825260208201905092915050565b600082825260208201905092915050565b60006119b182611a3a565b91506119bc83611a3a565b9250827fffffffffffffffffffffffffffffffffffffffffffffffffffffffffffffffff038211156119f1576119f0611aff565b5b828201905092915050565b6000611a0782611a1a565b9050919050565b60008115159050919050565b600073ffffffffffffffffffffffffffffffffffffffff82169050919050565b6000819050919050565b600060ff82169050919050565b60005b83811015611a6f578082015181840152602081019050611a54565b83811115611a7e576000848401525b50505050565b60006002820490506001821680611a9c57607f821691505b60208210811415611ab057611aaf611b2e565b5b50919050565b6000611ac182611a3a565b91507fffffffffffffffffffffffffffffffffffffffffffffffffffffffffffffffff821415611af457611af3611aff565b5b600182019050919050565b7f4e487b7100000000000000000000000000000000000000000000000000000000600052601160045260246000fd5b7f4e487b7100000000000000000000000000000000000000000000000000000000600052602260045260246000fd5b6000601f19601f8301169050919050565b7f4f776e61626c653a206e6577206f776e657220697320746865207a65726f206160008201527f6464726573730000000000000000000000000000000000000000000000000000602082015250565b7f506f6c6c20697320636c6f736564000000000000000000000000000000000000600082015250565b7f506f6c6c206973206f70656e0000000000000000000000000000000000000000600082015250565b7f4f776e61626c653a2063616c6c6572206973206e6f7420746865206f776e6572600082015250565b7f596f7527766520616c726561647920766f74656420666f72207468697320706f60008201527f6c6c000000000000000000000000000000000000000000000000000000000000602082015250565b7f4f7074696f6e20696e64657820697320696e76616c6964000000000000000000600082015250565b611cb9816119fc565b8114611cc457600080fd5b50565b611cd081611a3a565b8114611cdb57600080fd5b50565b611ce781611a44565b8114611cf257600080fd5b5056fea264697066735822122055242f88eae304039c596aa1629826d3a5905807f02caf500c085a6c93cfc8d264736f6c634300080300335765696768746564506f6c6c3a205573696e6720506f6c6c466163746f727920616464726573735765696768746564506f6c6c3a204465706c6f796564206f6e20626c6f636b636861696e20776974682061646472657373",
  "linkReferences": {},
  "deployedLinkReferences": {}
}