{
  "_format": "hh-sol-artifact-1",
  "contractName": "PollFactory",
  "sourceName": "contracts/PollFactory.sol",
  "abi": [
    {
      "inputs": [],
      "stateMutability": "nonpayable",
      "type": "constructor"
    },
    {
      "anonymous": false,
      "inputs": [
        {
          "indexed": false,
          "internalType": "uint256",
          "name": "id",
          "type": "uint256"
        }
      ],
      "name": "NewPoll",
      "type": "event"
    },
    {
      "inputs": [
        {
          "internalType": "string",
          "name": "_question",
          "type": "string"
        },
        {
          "internalType": "string[]",
          "name": "_options",
          "type": "string[]"
        }
      ],
      "name": "addPoll",
      "outputs": [],
      "stateMutability": "nonpayable",
      "type": "function"
    },
    {
      "inputs": [
        {
          "internalType": "uint256",
          "name": "_id",
          "type": "uint256"
        }
      ],
      "name": "countVotes",
      "outputs": [
        {
          "internalType": "uint256[]",
          "name": "res",
          "type": "uint256[]"
        }
      ],
      "stateMutability": "view",
      "type": "function"
    },
    {
      "inputs": [
        {
          "internalType": "uint256",
          "name": "_id",
          "type": "uint256"
        }
      ],
      "name": "getPoll",
      "outputs": [
        {
          "internalType": "string",
          "name": "",
          "type": "string"
        },
        {
          "internalType": "string[]",
          "name": "options",
          "type": "string[]"
        },
        {
          "internalType": "uint256[]",
          "name": "votes",
          "type": "uint256[]"
        }
      ],
      "stateMutability": "view",
      "type": "function"
    },
    {
      "inputs": [],
      "name": "numPolls",
      "outputs": [
        {
          "internalType": "uint256",
          "name": "",
          "type": "uint256"
        }
      ],
      "stateMutability": "view",
      "type": "function"
    },
    {
      "inputs": [
        {
          "internalType": "uint256",
          "name": "",
          "type": "uint256"
        }
      ],
      "name": "polls",
      "outputs": [
        {
          "internalType": "string",
          "name": "question",
          "type": "string"
        },
        {
          "internalType": "uint256",
          "name": "startDate",
          "type": "uint256"
        },
        {
          "internalType": "uint256",
          "name": "endDate",
          "type": "uint256"
        }
      ],
      "stateMutability": "view",
      "type": "function"
    },
    {
      "inputs": [
        {
          "internalType": "uint256",
          "name": "_id",
          "type": "uint256"
        },
        {
          "internalType": "uint8",
          "name": "_optionIndex",
          "type": "uint8"
        }
      ],
      "name": "votePoll",
      "outputs": [],
      "stateMutability": "nonpayable",
      "type": "function"
    }
  ],
  "bytecode": "0x60806040523480156200001157600080fd5b506200005d6040518060400160405280601681526020017f4465706c6f796564206f6e20626c6f636b636861696e000000000000000000008152506200006360201b62000f6f1760201c565b620001f7565b62000103816040516024016200007a919062000170565b6040516020818303038152906040527f41304fac000000000000000000000000000000000000000000000000000000007bffffffffffffffffffffffffffffffffffffffffffffffffffffffff19166020820180517bffffffffffffffffffffffffffffffffffffffffffffffffffffffff83818316178352505050506200010660201b60201c565b50565b60008151905060006a636f6e736f6c652e6c6f679050602083016000808483855afa5050505050565b60006200013c8262000194565b6200014881856200019f565b93506200015a818560208601620001b0565b6200016581620001e6565b840191505092915050565b600060208201905081810360008301526200018c81846200012f565b905092915050565b600081519050919050565b600082825260208201905092915050565b60005b83811015620001d0578082015181840152602081019050620001b3565b83811115620001e0576000848401525b50505050565b6000601f19601f8301169050919050565b611ede80620002076000396000f3fe608060405234801561001057600080fd5b50600436106100625760003560e01c80631840f0ca146100675780631a8cbcaa1461009757806338d36dd1146100c95780633ddf8cd5146100e5578063842ff2bd14610101578063ac2f00741461011f575b600080fd5b610081600480360381019061007c91906116dc565b610151565b60405161008e91906118ee565b60405180910390f35b6100b160048036038101906100ac91906116dc565b6103f5565b6040516100c09392919061197e565b60405180910390f35b6100e360048036038101906100de9190611670565b6109ee565b005b6100ff60048036038101906100fa9190611705565b610bee565b005b610109610ea1565b6040516101169190611af9565b60405180910390f35b610139600480360381019061013491906116dc565b610ead565b60405161014893929190611a6f565b60405180910390f35b6060600080549050821061016457600080fd5b600080838154811061019f577f4e487b7100000000000000000000000000000000000000000000000000000000600052603260045260246000fd5b90600052602060002090600502016001018054905067ffffffffffffffff8111156101f3577f4e487b7100000000000000000000000000000000000000000000000000000000600052604160045260246000fd5b6040519080825280602002602001820160405280156102215781602001602082028036833780820191505090505b50905060005b60008481548110610261577f4e487b7100000000000000000000000000000000000000000000000000000000600052603260045260246000fd5b9060005260206000209060050201600101805490508110156103eb57600084815481106102b7577f4e487b7100000000000000000000000000000000000000000000000000000000600052603260045260246000fd5b90600052602060002090600502016001018181548110610300577f4e487b7100000000000000000000000000000000000000000000000000000000600052603260045260246000fd5b90600052602060002090600202016001015482828151811061034b577f4e487b7100000000000000000000000000000000000000000000000000000000600052603260045260246000fd5b6020026020010181815250506103d86040518060400160405280600681526020017f726573756c74000000000000000000000000000000000000000000000000000081525085838585815181106103cb577f4e487b7100000000000000000000000000000000000000000000000000000000600052603260045260246000fd5b6020026020010151611008565b80806103e390611d93565b915050610227565b5080915050919050565b6060806060600080549050841061040b57600080fd5b61051e6040518060400160405280600b81526020017f506f6c6c206e756d626572000000000000000000000000000000000000000000815250856000878154811061047f577f4e487b7100000000000000000000000000000000000000000000000000000000600052603260045260246000fd5b9060005260206000209060050201600001805461049b90611d61565b80601f01602080910402602001604051908101604052809291908181526020018280546104c790611d61565b80156105145780601f106104e957610100808354040283529160200191610514565b820191906000526020600020905b8154815290600101906020018083116104f757829003601f168201915b50505050506110aa565b6000808581548110610559577f4e487b7100000000000000000000000000000000000000000000000000000000600052603260045260246000fd5b90600052602060002090600502016040518060a001604052908160008201805461058290611d61565b80601f01602080910402602001604051908101604052809291908181526020018280546105ae90611d61565b80156105fb5780601f106105d0576101008083540402835291602001916105fb565b820191906000526020600020905b8154815290600101906020018083116105de57829003601f168201915b5050505050815260200160018201805480602002602001604051908101604052809291908181526020016000905b828210156106f7578382906000526020600020906002020160405180604001604052908160008201805461065c90611d61565b80601f016020809104026020016040519081016040528092919081815260200182805461068890611d61565b80156106d55780601f106106aa576101008083540402835291602001916106d5565b820191906000526020600020905b8154815290600101906020018083116106b857829003601f168201915b5050505050815260200160018201548152505081526020019060010190610629565b50505050815260200160028201548152602001600382015481526020016004820180548060200260200160405190810160405280929190818152602001828054801561079857602002820191906000526020600020905b8160009054906101000a900473ffffffffffffffffffffffffffffffffffffffff1673ffffffffffffffffffffffffffffffffffffffff168152602001906001019080831161074e575b5050505050815250509050600081602001515167ffffffffffffffff8111156107ea577f4e487b7100000000000000000000000000000000000000000000000000000000600052604160045260246000fd5b60405190808252806020026020018201604052801561081d57816020015b60608152602001906001900390816108085790505b509050600082602001515167ffffffffffffffff811115610867577f4e487b7100000000000000000000000000000000000000000000000000000000600052604160045260246000fd5b6040519080825280602002602001820160405280156108955781602001602082028036833780820191505090505b50905060005b8360200151518110156109d657836020015181815181106108e5577f4e487b7100000000000000000000000000000000000000000000000000000000600052603260045260246000fd5b60200260200101516000015183828151811061092a577f4e487b7100000000000000000000000000000000000000000000000000000000600052603260045260246000fd5b602002602001018190525083602001518181518110610972577f4e487b7100000000000000000000000000000000000000000000000000000000600052603260045260246000fd5b6020026020010151602001518282815181106109b7577f4e487b7100000000000000000000000000000000000000000000000000000000600052603260045260246000fd5b60200260200101818152505080806109ce90611d93565b91505061089b565b50826000015182829550955095505050509193909250565b60006001816001815401808255809150500390600052602060002090505060006001600080549050610a209190611c96565b90506000808281548110610a5d577f4e487b7100000000000000000000000000000000000000000000000000000000600052603260045260246000fd5b9060005260206000209060050201905083816000019080519060200190610a859291906114b4565b504281600201819055506201518042610a9e9190611c40565b816003018190555060005b8351811015610b7157816001016040518060400160405280868481518110610afa577f4e487b7100000000000000000000000000000000000000000000000000000000600052603260045260246000fd5b60200260200101518152602001600081525090806001815401808255809150506001900390600052602060002090600202016000909190919091506000820151816000019080519060200190610b519291906114b4565b506020820151816001015550508080610b6990611d93565b915050610aa9565b50610bb16040518060400160405280600c81526020017f416464656420706f6c6c2023000000000000000000000000000000000000000081525083611149565b7ff9b9edcf96bc7dba51ad97259070c7c7ba3ce11c7e7e6cf01cb3e51e80632bad82604051610be09190611af9565b60405180910390a150505050565b6000805490508210610bff57600080fd5b60008281548110610c39577f4e487b7100000000000000000000000000000000000000000000000000000000600052603260045260246000fd5b9060005260206000209060050201600101805490508160ff1610610c5c57600080fd5b610c6682336111e5565b15610c7057600080fd5b610cb46040518060400160405280600981526020017f766f7465506f6c6c3a000000000000000000000000000000000000000000000081525033848460ff1661134d565b610cfc6040518060400160405280601081526020017f686173566f746564206265666f72653a00000000000000000000000000000000815250610cf784336111e5565b6113ef565b60008281548110610d36577f4e487b7100000000000000000000000000000000000000000000000000000000600052603260045260246000fd5b9060005260206000209060050201600401339080600181540180825580915050600190039060005260206000200160009091909190916101000a81548173ffffffffffffffffffffffffffffffffffffffff021916908373ffffffffffffffffffffffffffffffffffffffff16021790555060008281548110610de2577f4e487b7100000000000000000000000000000000000000000000000000000000600052603260045260246000fd5b90600052602060002090600502016001018160ff1681548110610e2e577f4e487b7100000000000000000000000000000000000000000000000000000000600052603260045260246000fd5b90600052602060002090600202016001016000815480929190610e5090611d93565b9190505550610e9d6040518060400160405280600f81526020017f686173566f7465642061667465723a0000000000000000000000000000000000815250610e9884336111e5565b6113ef565b5050565b60008080549050905090565b60008181548110610ebd57600080fd5b9060005260206000209060050201600091509050806000018054610ee090611d61565b80601f0160208091040260200160405190810160405280929190818152602001828054610f0c90611d61565b8015610f595780601f10610f2e57610100808354040283529160200191610f59565b820191906000526020600020905b815481529060010190602001808311610f3c57829003601f168201915b5050505050908060020154908060030154905083565b61100581604051602401610f839190611910565b6040516020818303038152906040527f41304fac000000000000000000000000000000000000000000000000000000007bffffffffffffffffffffffffffffffffffffffffffffffffffffffff19166020820180517bffffffffffffffffffffffffffffffffffffffffffffffffffffffff838183161783525050505061148b565b50565b6110a4848484846040516024016110229493929190611aad565b6040516020818303038152906040527f08ee5666000000000000000000000000000000000000000000000000000000007bffffffffffffffffffffffffffffffffffffffffffffffffffffffff19166020820180517bffffffffffffffffffffffffffffffffffffffffffffffffffffffff838183161783525050505061148b565b50505050565b6111448383836040516024016110c293929190611a2a565b6040516020818303038152906040527fa3f5c739000000000000000000000000000000000000000000000000000000007bffffffffffffffffffffffffffffffffffffffffffffffffffffffff19166020820180517bffffffffffffffffffffffffffffffffffffffffffffffffffffffff838183161783525050505061148b565b505050565b6111e1828260405160240161115f9291906119fa565b6040516020818303038152906040527f9710a9d0000000000000000000000000000000000000000000000000000000007bffffffffffffffffffffffffffffffffffffffffffffffffffffffff19166020820180517bffffffffffffffffffffffffffffffffffffffffffffffffffffffff838183161783525050505061148b565b5050565b600080600090505b60008481548110611227577f4e487b7100000000000000000000000000000000000000000000000000000000600052603260045260246000fd5b906000526020600020906005020160040180549050811015611341578273ffffffffffffffffffffffffffffffffffffffff1660008581548110611294577f4e487b7100000000000000000000000000000000000000000000000000000000600052603260045260246000fd5b906000526020600020906005020160040182815481106112dd577f4e487b7100000000000000000000000000000000000000000000000000000000600052603260045260246000fd5b9060005260206000200160009054906101000a900473ffffffffffffffffffffffffffffffffffffffff1673ffffffffffffffffffffffffffffffffffffffff16141561132e576001915050611347565b808061133990611d93565b9150506111ed565b50600090505b92915050565b6113e9848484846040516024016113679493929190611932565b6040516020818303038152906040527fdaa394bd000000000000000000000000000000000000000000000000000000007bffffffffffffffffffffffffffffffffffffffffffffffffffffffff19166020820180517bffffffffffffffffffffffffffffffffffffffffffffffffffffffff838183161783525050505061148b565b50505050565b61148782826040516024016114059291906119ca565b6040516020818303038152906040527fc3b55635000000000000000000000000000000000000000000000000000000007bffffffffffffffffffffffffffffffffffffffffffffffffffffffff19166020820180517bffffffffffffffffffffffffffffffffffffffffffffffffffffffff838183161783525050505061148b565b5050565b60008151905060006a636f6e736f6c652e6c6f679050602083016000808483855afa5050505050565b8280546114c090611d61565b90600052602060002090601f0160209004810192826114e25760008555611529565b82601f106114fb57805160ff1916838001178555611529565b82800160010185558215611529579182015b8281111561152857825182559160200191906001019061150d565b5b509050611536919061153a565b5090565b5b8082111561155357600081600090555060010161153b565b5090565b600061156a61156584611b45565b611b14565b9050808382526020820190508260005b858110156115aa5781358501611590888261161c565b84526020840193506020830192505060018101905061157a565b5050509392505050565b60006115c76115c284611b71565b611b14565b9050828152602081018484840111156115df57600080fd5b6115ea848285611d1f565b509392505050565b600082601f83011261160357600080fd5b8135611613848260208601611557565b91505092915050565b600082601f83011261162d57600080fd5b813561163d8482602086016115b4565b91505092915050565b60008135905061165581611e7a565b92915050565b60008135905061166a81611e91565b92915050565b6000806040838503121561168357600080fd5b600083013567ffffffffffffffff81111561169d57600080fd5b6116a98582860161161c565b925050602083013567ffffffffffffffff8111156116c657600080fd5b6116d2858286016115f2565b9150509250929050565b6000602082840312156116ee57600080fd5b60006116fc84828501611646565b91505092915050565b6000806040838503121561171857600080fd5b600061172685828601611646565b92505060206117378582860161165b565b9150509250929050565b600061174d838361185e565b905092915050565b600061176183836118d0565b60208301905092915050565b61177681611cca565b82525050565b600061178782611bc1565b6117918185611bfc565b9350836020820285016117a385611ba1565b8060005b858110156117df57848403895281516117c08582611741565b94506117cb83611be2565b925060208a019950506001810190506117a7565b50829750879550505050505092915050565b60006117fc82611bcc565b6118068185611c0d565b935061181183611bb1565b8060005b838110156118425781516118298882611755565b975061183483611bef565b925050600181019050611815565b5085935050505092915050565b61185881611cdc565b82525050565b600061186982611bd7565b6118738185611c1e565b9350611883818560208601611d2e565b61188c81611e69565b840191505092915050565b60006118a282611bd7565b6118ac8185611c2f565b93506118bc818560208601611d2e565b6118c581611e69565b840191505092915050565b6118d981611d08565b82525050565b6118e881611d08565b82525050565b6000602082019050818103600083015261190881846117f1565b905092915050565b6000602082019050818103600083015261192a8184611897565b905092915050565b6000608082019050818103600083015261194c8187611897565b905061195b602083018661176d565b61196860408301856118df565b61197560608301846118df565b95945050505050565b600060608201905081810360008301526119988186611897565b905081810360208301526119ac818561177c565b905081810360408301526119c081846117f1565b9050949350505050565b600060408201905081810360008301526119e48185611897565b90506119f3602083018461184f565b9392505050565b60006040820190508181036000830152611a148185611897565b9050611a2360208301846118df565b9392505050565b60006060820190508181036000830152611a448186611897565b9050611a5360208301856118df565b8181036040830152611a658184611897565b9050949350505050565b60006060820190508181036000830152611a898186611897565b9050611a9860208301856118df565b611aa560408301846118df565b949350505050565b60006080820190508181036000830152611ac78187611897565b9050611ad660208301866118df565b611ae360408301856118df565b611af060608301846118df565b95945050505050565b6000602082019050611b0e60008301846118df565b92915050565b6000604051905081810181811067ffffffffffffffff82111715611b3b57611b3a611e3a565b5b8060405250919050565b600067ffffffffffffffff821115611b6057611b5f611e3a565b5b602082029050602081019050919050565b600067ffffffffffffffff821115611b8c57611b8b611e3a565b5b601f19601f8301169050602081019050919050565b6000819050602082019050919050565b6000819050602082019050919050565b600081519050919050565b600081519050919050565b600081519050919050565b6000602082019050919050565b6000602082019050919050565b600082825260208201905092915050565b600082825260208201905092915050565b600082825260208201905092915050565b600082825260208201905092915050565b6000611c4b82611d08565b9150611c5683611d08565b9250827fffffffffffffffffffffffffffffffffffffffffffffffffffffffffffffffff03821115611c8b57611c8a611ddc565b5b828201905092915050565b6000611ca182611d08565b9150611cac83611d08565b925082821015611cbf57611cbe611ddc565b5b828203905092915050565b6000611cd582611ce8565b9050919050565b60008115159050919050565b600073ffffffffffffffffffffffffffffffffffffffff82169050919050565b6000819050919050565b600060ff82169050919050565b82818337600083830152505050565b60005b83811015611d4c578082015181840152602081019050611d31565b83811115611d5b576000848401525b50505050565b60006002820490506001821680611d7957607f821691505b60208210811415611d8d57611d8c611e0b565b5b50919050565b6000611d9e82611d08565b91507fffffffffffffffffffffffffffffffffffffffffffffffffffffffffffffffff821415611dd157611dd0611ddc565b5b600182019050919050565b7f4e487b7100000000000000000000000000000000000000000000000000000000600052601160045260246000fd5b7f4e487b7100000000000000000000000000000000000000000000000000000000600052602260045260246000fd5b7f4e487b7100000000000000000000000000000000000000000000000000000000600052604160045260246000fd5b6000601f19601f8301169050919050565b611e8381611d08565b8114611e8e57600080fd5b50565b611e9a81611d12565b8114611ea557600080fd5b5056fea264697066735822122020b3230cd5479a0544807db45607b37a4082222c4af5fb562e9675f35215f4e664736f6c63430008000033",
  "linkReferences": {},
  "deployedLinkReferences": {}
}